:100000000C943A000C9457000C9457000C94570031
:100010000C9457000C9457000C9457000C94570004
:100020000C9457000C9457000C9457000C945700F4
:100030000C9457000C9457000C9457000C945700E4
:100040000C9457000C9457000C9457000C945700D4
:100050000C9457000C9457000C9457000C945700C4
:100060000C9457000C9457000C9457000C945700B4
:100070000C94570011241FBECFEFD4E0DEBFCDBFDC
:1000800011E0A0E0B1E0ECEAF0E102C005900D92D1
:10009000A636B107D9F721E0A6E6B1E001C01D926E
:1000A000AE37B207E1F70E9438070C9454080C945D
:1000B0000000CF93DF93EC0182E00E947B03882352
:1000C00019F0CE01019609C080E00E947B038823CD
:1000D00019F0CE01019701C0CE01DF91CF910895B3
:1000E00080E197E20E94FF060E942A0441E064E05A
:1000F00074E084E092E00E94B404C0E0D0E00E948A
:1001000083060E94AD0382E00E947B03882389F06E
:10011000C230D10574F40E945E057C2F7B5F41E004
:1001200064E084E09C2F9D5F0E94B4040E948306DB
:10013000219680E00E947B03882309F3CF3F8FEF55
:10014000D807ECF20E945E057C2F7D5F41E064E001
:1001500084E09C2F9F5F0E94B4040E948306219735
:10016000CECF0C94B0020C94D1020C94B6020C9435
:10017000BC020C94C2020E94C2020E94BC028823EC
:10018000E1F38CE291E00197F1F70E94B002811156
:100190000C94B30008950C94D802CF93DF9300D051
:1001A0001F92CDB7DEB780ED90E09A83898388E017
:1001B0008B83509A589A0E9483028FE690E00E94A7
:1001C0001A0281E090E00E94720261E070E081E03A
:1001D00090E00E945E020E944A02CE0101960E94B7
:1001E00098020F900F900F90DF91CF9108958F920A
:1001F0009F92AF92BF92CF92DF92EF92FF920F93B6
:100200001F93CF93DF93CDB7DEB72C970FB6F8943B
:10021000DEBF0FBECDBFFC01C982DA82EB82FC8259
:100220000D831E832F83388749875A876B877C8786
:1002300069817A814B815C812D813E818F81988596
:10024000A985BA858B849C8441305105F1F46430D2
:100250007105B4F463307105A9F46901C80ED91EA3
:10026000AC14BD0469F075011FEFE11AF10AEC143A
:10027000FD0431F011E0A11AB108AC14BD0411F471
:100280004FEF5FEF640F751F0FC04F3F1FEF510718
:1002900059F477FD03C06150710906C0AB2B11F40E
:1002A000812C912CA1E0B0E08130910559F42630E9
:1002B00031051CF42F5F3F4F10C0215031098FEFE3
:1002C0009FEF0BC08F3F1FEF910739F412161306F3
:1002D00014F081E090E0280F391FA130B10569F4D6
:1002E0001FEF811A910A1BE08116910434F0A0E0FF
:1002F000B0E041E050E060E070E0718360835383E0
:1003000042833583248397838683B187A08793862E
:100310008286CF012C960FB6F894DEBF0FBECDBFFC
:10032000DF91CF911F910F91FF90EF90DF90CF90D1
:10033000BF90AF909F908F900895E1E6F0E080E845
:1003400080831082A89584B7877F84BFE0E6F0E0C1
:10035000808188618083108208951092800084E0FB
:1003600080938100109285001092840008958091FE
:100370008400909185000895AC0180918400909153
:1003800085009C01241B350B283E3340B0F70895AF
:100390002091840030918500820F931F0C94BC0142
:1003A000853098F4673088F421E030E001C0220FF6
:1003B0006A95EAF7E82FF0E0E859FE4F922F909502
:1003C000808189234111822B80830895853080F4B8
:1003D000673070F4E82FF0E0E859FE4F81E090E0DC
:1003E00001C0880F6A95EAF79081982381E009F4AB
:1003F00080E0089560916701E62FF0E0E859FE4F34
:1004000080810E941203809167018F5F853018F40C
:10041000809367010895109267010895E8E6F1E07E
:100420001082118212821382148208950E94F002B7
:100430000C940E02CF93DF931F92CDB7DEB79E01CF
:100440002F5F3F4F45E06EE371E00E940F0791E0A0
:10045000980F909300019981915097BD18BC95B564
:10046000977039F095B5209100012770987F922BF5
:1004700095BD298130E0E82FF0E0E25CFE4FC90134
:10048000008002C0880F991F0A94E2F70F90DF9155
:10049000CF91089585B3897F85BB85B59091000183
:1004A0009770887F892B85BD089585B5887F85BD28
:1004B000089585B382FB882780F90895009719F085
:1004C000019741F0089584B56295660F660F607CD0
:1004D0008F7305C084B563706295607F8F7C682BD5
:1004E00064BD0895009741F0019759F484B58E7F5B
:1004F00084BD84B5826002C084B58C7F84BD81E0F8
:10050000089580E0089514BC15BC16BC18BC84B5D1
:100510008E7F84BD84B5826084BD81E008959C0196
:10052000215031093093CD0081508093CC00089543
:10053000CF93DF93EC01888199810E948F028A8199
:100540009BEF980F943008F088E098E19093C900F1
:100550008550880F8093CA0081E0DF91CF91089584
:100560008091C800881F8827881F08958091C8003F
:1005700085FB882780F908958091C80086FB88272D
:1005800080F90895CF93C82F0E94B6028823E1F323
:100590009091C80090649093C800C093CE00CF9112
:1005A00008958091C80087FFFCCF8091CE00089508
:1005B000CF93DF93EC018991882319F00E94C20246
:1005C000FACFDF91CF9108959C01FC01FF2784A110
:1005D000832B84A395A1892F832B85A381E0089584
:1005E000CF93DF93CDE4D1E0899199910E94E40209
:1005F00081E0CB35D807C1F783E090E40E94E402A4
:1006000080E090E80E94E40283E090E10E94E4022E
:1006100083E090E80E94E40283E090E2DF91CF91D2
:100620000C94E402E0916D01F0E0EE0FFF1FED5B32
:10063000FE4F20813181F901FF2795A1932B95A3CE
:10064000EDE4F1E097E020813181D901BB27959657
:100650002C91959780FF03C03095232301C0232B55
:1006600095962C938695915032969111ECCFE62F6A
:10067000F0E0EE0FFF1FED5BFE4F80819181FC01EA
:10068000FF2785A19095892385A360936D01089527
:100690006230710511F168F46130710551F5FC01AA
:1006A000FF2724A1892F8095922F982394A395A1A9
:1006B00012C06330710541F064307105D1F4FC0162
:1006C000FF2784A1892B0FC0FC01FF2784A1892B60
:1006D00084A385A19095892309C0FC01FF2724A14B
:1006E000892F8095822384A385A1892B85A381E00E
:1006F000089580E00895E82FF0E0EE0FFF1FE25923
:10070000FE4F8081882321F0918181E0892702C0FA
:1007100080E090E081700895E82FF0E0EE0FFF1F79
:10072000E259FE4F8081811102C0818102C080E0C8
:1007300090E081700895E82FF0E0EE0FFF1FE2597E
:10074000FE4F80810895E82FF0E0EE0FFF1FE25981
:10075000FE4F908181E0892708956F927F928F925A
:100760009F92AF92BF92CF92DF92EF92FF920F9340
:100770001F93CF93DF9300D0CDB7DEB72EE6622E66
:1007800021E0722E3BE5C32E31E0D32E812C46E0D2
:10079000942EF30180818183F601019111916F0103
:1007A0005801BB24F50184A1E12EFF2425A130E0EE
:1007B0002E213F2141E0232B09F440E090E08E21DF
:1007C0009F21892B29F0411108C023E030E00AC0A5
:1007D000411106C021E030E005C024E030E002C055
:1007E00022E030E064E070E0C80129833A830E948F
:1007F000480362E070E0C8010E944803892D8A9591
:10080000F1F7F50183A190E0E822F92281E0298146
:100810003A81EF2809F080E0F3018083B901C80133
:100820000E9448038394F2E06F0E711C85E08812E9
:10083000B0CF0F900F90DF91CF911F910F91FF904C
:10084000EF90DF90CF90BF90AF909F908F907F9070
:100850006F9008950895009789F0FC012381621B31
:1008600067FD09C0062E000C770B248130E081E083
:10087000621773070CF080E08170089580E008959E
:10088000CF93DF93FC01A62F822F309771F1618106
:10089000461758F59281291740F59381A91BA7FDAA
:1008A00024C00A2E000CBB0BC481D0E0AC17BD07DE
:1008B000E4F40E94D607480F658170E0CD010E94E4
:1008C000DF070696242F269526952695E80FF91F13
:1008D000E20FF11D9081892F90E0477002C095953D
:1008E00087954A95E2F7817001C080E0DF91CF9152
:1008F0000895CF93DF93EC010E94AD019E0140E08B
:1009000050E062E17AE780E090E00E9404083093D2
:100910007B0120937A01DF91CF9108958091780136
:10092000909179010E94BC01209178013091790168
:1009300080917A0190917B01820F931F90937901AE
:1009400080937801089541E0611101C040E0692F72
:100950000C94D001692F0C94E60141E0611101C0B3
:1009600040E0692F0C94D0014F925F926F927F927A
:100970008F929F92AF92BF92CF92DF92EF92FF92AF
:100980000F931F93CF93DF931F92CDB7DEB7862EC1
:10099000942E5C01E62EF72E262F660F330B281BB4
:1009A000310987FD3395072F072E000C110B091B0A
:1009B000110997FD139537FF03C077247A9402C07D
:1009C0007724739417FF03C066246A9402C06624D8
:1009D0006394290137FF03C051944194510817FFD4
:1009E00003C011950195110940165106A4F062014A
:1009F000D594C794F92EA81421F1692D8A2D9F2D25
:100A00000E94AD04C01AD10AD7FE03C0C40CD51C85
:100A1000F60CA70CF0CF6801D594C794E82EB71652
:100A200081F0692D8E2D9B2D79830E94AD04C41811
:100A3000D5087981D7FE03C0C00ED11EE70CB60CD5
:100A4000EECF692DC7010F90DF91CF911F910F91CC
:100A5000FF90EF90DF90CF90BF90AF909F908F90DE
:100A60007F906F905F904F900C94AD04FF920F9326
:100A70001F93CF93DF93D82FF92E162FC72F042F54
:100A8000792F0E94B404402F6D2F7C2F8D2F9F2D26
:100A90000E94B404402F612F7C2F812F9F2D0E9434
:100AA000B404402F612F7C2F8D2F9C2F0E94B40403
:100AB000DF91CF911F910F91FF9008950E940E0238
:100AC000E1E0F1E0118A14860895DF92EF92FF923F
:100AD0000F931F93CF93DF93D82E7B01162F0F2DEB
:100AE0008091030190910401C0E00197A1F50F2DC1
:100AF0000C1BE0910901F0910A018181C817C0F433
:100B0000D0E08091090190910A01FC012281D21765
:100B100068F42D2F4C2F6D2D0E944004682F8D2FCF
:100B20008E0D902F0E94AD04DF5FEBCFCF5FDFCF44
:100B3000C0E0E0910901F0910A018281C81740F4F8
:100B400060E08C2F8E0D902F0E94AD04CF5FF1CF0F
:100B5000015031C0CF5F1C2F1E0DE0910901F091B3
:100B60000A018181C817B0F4D0E080910901909109
:100B70000A01FC012281D21768F72D2F4C2F6D2D11
:100B80000E944004682F812F9D2F9F0D0E94AD046D
:100B9000DF5FEBCFC0E0E0910901F0910A018281B3
:100BA000C81740F460E0812F9C2F9F0D0E94AD0478
:100BB000CF5FF1CF1F5F812F902FDF91CF911F91DA
:100BC0000F91FF90EF90DF9008951F93CF93DF93E5
:100BD000182FEC018C2F811B9991992351F0892FAB
:100BE0000E946505BC018C2F811B653014F477FFD2
:100BF000F1CFDF91CF911F9108950F931F93CF9362
:100C0000DF93EC019B0110920D0140930E011092B5
:100C100011010091090110910A010115110509F452
:100C200049C0F8018181609107017091080190E04D
:100C30000E94DF07BC0180910B0190910C010E9482
:100C4000F007CB016AE070E00E94DF07909310018B
:100C500080930F01309306012093050140E250E09C
:100C6000BE0182E191E00E944508809101019091CE
:100C700002010197F9F4FE0101900020E9F7CF018C
:100C80000197F8019181692F70E06F5F7F4F8C1B96
:100C90000E94D60781502091030130910401213038
:100CA000310511F095E001C097E0981718F48EEF28
:100CB00080931101DF91CF911F910F9108952091A1
:100CC0000301309104012130310511F070E001C0C1
:100CD00076E04FEF60E00E94FD05089590E090936C
:100CE0000801809307010895909302018093010108
:100CF00008959093040180930301089590930A014D
:100D000080930901089580917C0190917D01019665
:100D100090937D0180937C0120910F01309110010F
:100D20008217930708F469C010927D0110927C012C
:100D3000E0910D01F0E0EF5FFE4F818981110AC063
:100D400080910E01823008F458C0815080930E01CA
:100D500010920D0180910D0190E0FC01EF5FFE4FBC
:100D60002189222309F449C04091010150910201D7
:100D7000209111014115510521F04130510599F0A3
:100D800024C0211122C060910501709106018E5E80
:100D90009E4F0E94E50590E0019790910D01890F0B
:100DA00080930D0112C06091050170910601409180
:100DB0000301509104014130510511F4720F01C03B
:100DC000621B8E5E9E4F0E94E505809111018F5F30
:100DD00080931101082E000C990BE0910901F0910C
:100DE0000A01218130E0281739073CF410921101E3
:100DF00080910D018F5F80930D010C94FA01CF93C8
:100E0000DF93C1E0D1E09B878A870E94160284E1CC
:100E100090E09F838E83DF91CF910C945E05CF93FA
:100E2000DF93DC01562FFB0160E070E0C1E0D0E011
:100E30008E2F851B8417B8F49191BE01092E02C034
:100E4000660F771F0A94E2F76F5F7F4F769567957D
:100E50006A0F7B1F02C0769567959A95E2F76F3F00
:100E6000710509F028F7F9016083DF91CF910895AA
:100E7000CF93DF93CDB7DEB72C970FB6F894DEBFD4
:100E80000FBECDBF0E949D0184EF91E00E94FF063E
:100E900084EF91E00E9479040E942A040E94CD0010
:100EA0008CE0E2E3F1E0DE01119601900D928A956B
:100EB000E1F7612C712CEE24E394F12C02E010E0B8
:100EC000C12CD12C93E0992E812CA12CB12C0E9405
:100ED000AD03892D982D0E945900982E892E0E94CD
:100EE00083060E945E0571E0790D41E064E084E0D4
:100EF0009FEF990D0E94B40461E08C2D902F0E9409
:100F0000AD040E948E0486E9A816B1040CF1C982D2
:100F1000DA821E830D832E2DF886EF82462D7A8687
:100F20006986A92CB82CEB80FC801E8138855A85F7
:100F30006B857C85CE0101960E94F700C980DA801E
:100F40000D811E81EF80F88469847A84A12CB12CF4
:100F50008FEFA81AB80A82E06816710409F0B7CFBB
:100F600080916601882349F0813071F48E2D8F7055
:100F70000E94BB001092660107C0802F8F700E94F4
:100F8000BB0081E0809366010E94B300982F929588
:100F90009F7029F0913031F0C12CD12C98CF082FBF
:100FA00010E0FACF8F70E82EF12CF6CF002480FDF0
:100FB000060E660F11F08695D1F7802D0895002456
:100FC000552704C0080E591F880F991F009729F054
:100FD00076956795B8F37105B9F7802D952F08952B
:100FE000AA1BBB1B51E107C0AA1FBB1FA617B7074F
:100FF00010F0A61BB70B881F991F5A95A9F780956B
:101000009095BC01CD010895052E97FB1EF4009428
:101010000E941B0857FD07D00E94230807FC03D03D
:101020004EF40C941B0850954095309521953F4FF8
:101030004F4F5F4F089590958095709561957F4FC4
:101040008F4F9F4F0895A1E21A2EAA1BBB1BFD01D3
:101050000DC0AA1FBB1FEE1FFF1FA217B307E40797
:10106000F50720F0A21BB30BE40BF50B661F771FEF
:10107000881F991F1A9469F76095709580959095CF
:101080009B01AC01BD01CF010895FB01DC01415082
:10109000504048F001900D920020C9F701C01D9208
:0C10A00041505040E0F70895F894FFCF55
:1010AC00010000000000001400000000000000001F
:1010BC000000000000000000000000000000000024
:1010CC000000000000000000000000000000000014
:1010DC0000000000010002000100000000000003FD
:1010EC0006080A0340008003100380032000400020
:1010FC0020001000080004000200010380034003DC
:06110C002000800310002A
:00000001FF
