:100000000C943A000C9457000C9457000C94570031
:100010000C9457000C9457000C9457000C94570004
:100020000C9457000C9457000C9457000C945700F4
:100030000C9457000C9457000C9457000C945700E4
:100040000C9457000C9457000C9457000C945700D4
:100050000C9457000C9457000C9457000C945700C4
:100060000C9457000C9457000C9457000C945700B4
:100070000C94570011241FBECFEFD4E0DEBFCDBFDC
:1000800011E0A0E0B1E0EEE4F0E102C005900D92D5
:10009000A636B107D9F721E0A6E6B1E001C01D926E
:1000A000AD37B207E1F70E9441070C9425080C9484
:1000B0000000CF93DF93EC0182E00E948403882349
:1000C00019F0CE01019609C080E00E9484038823C4
:1000D00019F0CE01019701C0CE01DF91CF910895B3
:1000E00080E197E20E9408070E94330441E064E047
:1000F00074E084E092E00E94BD04C0E0D0E00E9481
:100100008C060E94B60382E00E948403882389F053
:10011000C230D10574F40E9467057C2F7B5F41E0FB
:1001200064E084E09C2F9D5F0E94BD040E948C06C9
:10013000219680E00E948403882309F3CF3F8FEF4C
:10014000D807ECF20E9467057C2F7D5F41E064E0F8
:1001500084E09C2F9F5F0E94BD040E948C06219723
:10016000CECF0C94B9020C94DA020C94BF020C941A
:10017000C5020C94CB020E94CB020E94C5028823C8
:10018000E1F38CE291E00197F1F70E94B90281114D
:100190000C94B30008950C94E102CF93DF9300D048
:1001A0001F92CDB7DEB780ED90E09A83898388E017
:1001B0008B83509A589A0E948C028FE690E00E949E
:1001C000230281E090E00E947B0261E070E081E028
:1001D00090E00E9467020E945302CE0101960E94A5
:1001E000A1020F900F900F90DF91CF9108958F9201
:1001F0009F92AF92BF92CF92DF92EF92FF920F93B6
:100200001F93CF93DF93CDB7DEB72C970FB6F8943B
:10021000DEBF0FBECDBF4C01C982DA82EB82FC8209
:100220000D831E832F83388749875A876B877C8786
:1002300089819A812B813C810D811E81EF80F88418
:1002400049855A85CB84DC8421303105E9F484303A
:100250009105ACF483309105A1F4F801EE0DFF1D7A
:10026000AE16BF0661F0B5016F5F7F4F6E177F0757
:1002700031F061E0A61AB108AE16BF0611F42FEFF7
:100280003FEF820F931F15C02F3FEFEF3E0789F41A
:1002900097FD02C001970DC0452B11F4C12CD12C44
:1002A000C8010E94BB0040E050E021E030E080E067
:1002B00090E0F1E0EF16F10461F4063011051CF452
:1002C0000F5F1F4F12C001501109EE24EA94FE2C5B
:1002D0000CC06FEFE616F60641F4101611061CF07E
:1002E000EE24E394F12C0E0D1F1D4130510569F4ED
:1002F000EFEFCE1ADE0AFBE0CF16D10434F040E077
:1003000050E021E030E080E090E0F40191838083D0
:100310003383228315830483F782E68251874087E3
:10032000D386C286C4012C960FB6F894DEBF0FBEEA
:10033000CDBFDF91CF911F910F91FF90EF90DF9094
:10034000CF90BF90AF909F908F900895E1E6F0E03E
:1003500080E880831082A89584B7877F84BFE0E619
:10036000F0E080818861808310820895109280007F
:1003700084E080938100109285001092840008959B
:1003800080918400909185000895AC018091840053
:10039000909185009C01241B350B283E3340B0F71B
:1003A00008952091840030918500820F931F0C9452
:1003B000C501853098F4673088F421E030E001C051
:1003C000220F6A95EAF7E82FF0E0E959FE4F922FE5
:1003D0009095808189234111822B808308958530F7
:1003E00080F4673070F4E82FF0E0E959FE4F81E0C7
:1003F00090E001C0880F6A95EAF79081982381E028
:1004000009F480E0089560916601E62FF0E0E95973
:10041000FE4F80810E941B03809166018F5F8530B3
:1004200018F4809366010895109266010895E7E636
:10043000F1E01082118212821382148208950E94C8
:10044000F9020C941702CF93DF931F92CDB7DEB75A
:100450009E012F5F3F4F45E06EE371E00E94180759
:1004600091E0980F909300019981915097BD18BC2D
:1004700095B5977039F095B5209100012770987F58
:10048000922B95BD298130E0E82FF0E0E25CFE4F31
:10049000C901008002C0880F991F0A94E2F70F90EB
:1004A000DF91CF91089585B3897F85BB85B5909104
:1004B00000019770887F892B85BD089585B5887F59
:1004C00085BD089585B382FB882780F9089500973C
:1004D00019F0019741F0089584B56295660F660F93
:1004E000607C8F7305C084B563706295607F8F7C7C
:1004F000682B64BD0895009741F0019759F484B5C5
:100500008E7F84BD84B5826002C084B58C7F84BD3B
:1005100081E0089580E0089514BC15BC16BC18BC99
:1005200084B58E7F84BD84B5826084BD81E00895EA
:100530009C01215031093093CD0081508093CC0033
:100540000895CF93DF93EC01888199810E949802EE
:100550008A819BEF980F943008F088E098E190939F
:10056000C9008550880F8093CA0081E0DF91CF9148
:1005700008958091C800881F8827881F089580915A
:10058000C80085FB882780F908958091C80086FB04
:10059000882780F90895CF93C82F0E94BF0288232F
:1005A000E1F39091C80090649093C800C093CE008E
:1005B000CF9108958091C80087FFFCCF8091CE0035
:1005C0000895CF93DF93EC018991882319F00E945D
:1005D000CB02FACFDF91CF9108959C01FC01FF2758
:1005E00084A1832B84A395A1892F832B85A381E0EC
:1005F0000895CF93DF93CDE4D1E0899199910E9442
:10060000ED0281E0CB35D807C1F783E090E40E948A
:10061000ED0280E090E80E94ED0283E090E10E940C
:10062000ED0283E090E80E94ED0283E090E2DF912A
:10063000CF910C94ED02E0916C01F0E0EE0FFF1F02
:10064000ED5BFE4F20813181F901FF2795A1932BAE
:1006500095A3EDE4F1E097E020813181D901BB273A
:1006600095962C91959780FF03C03095232301C068
:10067000232B95962C938695915032969111ECCF21
:10068000E62FF0E0EE0FFF1FED5BFE4F80819181C2
:10069000FC01FF2785A19095892385A360936C01B8
:1006A00008956230710511F168F46130710551F5FA
:1006B000FC01FF2724A1892F8095922F982394A3D2
:1006C00095A112C06330710541F064307105D1F419
:1006D000FC01FF2784A1892B0FC0FC01FF2784A107
:1006E000892B84A385A19095892309C0FC01FF274C
:1006F00024A1892F8095822384A385A1892B85A39A
:1007000081E0089580E00895E82FF0E0EE0FFF1FEC
:10071000E359FE4F8081882321F0918181E0892770
:1007200002C080E090E081700895E82FF0E0EE0FC5
:10073000FF1FE359FE4F8081811102C0818102C0F9
:1007400080E090E081700895E82FF0E0EE0FFF1F49
:10075000E359FE4F80810895E82FF0E0EE0FFF1F70
:10076000E359FE4F908181E0892708956F927F922F
:100770008F929F92AF92BF92CF92DF92EF92FF92B1
:100780000F931F93CF93DF9300D0CDB7DEB72DE645
:10079000622E21E0722E3BE5C32E31E0D32E812C58
:1007A00046E0942EF30180818183F601019111913D
:1007B0006F015801BB24F50184A1E12EFF2425A17E
:1007C00030E02E213F2141E0232B09F440E090E06E
:1007D0008E219F21892B29F0411108C023E030E0B0
:1007E0000AC0411106C021E030E005C024E030E03D
:1007F00002C022E030E064E070E0C80129833A835F
:100800000E94510362E070E0C8010E945103892DEB
:100810008A95F1F7F50183A190E0E822F92281E0C1
:1008200029813A81EF2809F080E0F3018083B90142
:10083000C8010E9451038394F2E06F0E711C85E0A1
:100840008812B0CF0F900F90DF91CF911F910F9131
:10085000FF90EF90DF90CF90BF90AF909F908F90E0
:100860007F906F9008950895009789F0FC0123818F
:10087000621B67FD09C0062E000C770B248130E057
:1008800081E0621773070CF080E08170089580E0CA
:100890000895CF93DF93FC01A62F822F309771F13B
:1008A0006181461758F59281291740F59381A91B5C
:1008B000A7FD24C00A2E000CBB0BC481D0E0AC17EE
:1008C000BD07E4F40E94A707480F658170E0CD01E1
:1008D0000E94B0070696242F269526952695E80FA8
:1008E000F91FE20FF11D9081892F90E0477002C03F
:1008F000959587954A95E2F7817001C080E0DF9178
:10090000CF910895CF93DF93EC010E94B6019E0131
:1009100040E050E062E17AE780E090E00E94D50795
:1009200030937A0120937901DF91CF9108958091DE
:100930007701909178010E94C50120917701309153
:1009400078018091790190917A01820F931F9093A1
:10095000780180937701089541E0611101C040E082
:10096000692F0C94D901692F0C94EF0141E06111BA
:1009700001C040E0692F0C94D9014F925F926F92B1
:100980007F928F929F92AF92BF92CF92DF92EF921F
:10099000FF920F931F93CF93DF931F92CDB7DEB7D4
:1009A000862E942E5C01E62EF72E262F660F330B33
:1009B000281B310987FD3395072F072E000C110BDB
:1009C000091B110997FD139537FF03C077247A940B
:1009D00002C07724739417FF03C066246A9402C090
:1009E00066246394290137FF03C051944194510850
:1009F00017FF03C011950195110940165106A4F087
:100A00006201D594C794F92EA81421F1692D8A2D7D
:100A10009F2D0E94B604C01AD10AD7FE03C0C40C91
:100A2000D51CF60CA70CF0CF6801D594C794E82E1E
:100A3000B71681F0692D8E2D9B2D79830E94B60407
:100A4000C418D5087981D7FE03C0C00ED11EE70CAB
:100A5000B60CEECF692DC7010F90DF91CF911F919A
:100A60000F91FF90EF90DF90CF90BF90AF909F904D
:100A70008F907F906F905F904F900C94B604FF9290
:100A80000F931F93CF93DF93D82FF92E162FC72FD5
:100A9000042F792F0E94BD04402F6D2F7C2F8D2FA6
:100AA0009F2D0E94BD04402F612F7C2F812F9F2DF1
:100AB0000E94BD04402F612F7C2F8D2F9C2F0E9400
:100AC000BD04DF91CF911F910F91FF9008950E9477
:100AD0001702E1E0F1E0118A14860895DF92EF92A7
:100AE000FF920F931F93CF93DF93D82E7B01162F86
:100AF0000F2D8091030190910401C0E00197A1F5B1
:100B00000F2D0C1BE0910901F0910A018181C8179A
:100B1000C0F4D0E08091090190910A01FC0122818A
:100B2000D21768F42D2F4C2F6D2D0E944904682F89
:100B30008D2F8E0D902F0E94B604DF5FEBCFCF5F1D
:100B4000DFCFC0E0E0910901F0910A018281C8176E
:100B500040F460E08C2F8E0D902F0E94B604CF5F82
:100B6000F1CF015031C0CF5F1C2F1E0DE091090164
:100B7000F0910A018181C817B0F4D0E08091090199
:100B800090910A01FC012281D21768F72D2F4C2F7A
:100B90006D2D0E944904682F812F9D2F9F0D0E946B
:100BA000B604DF5FEBCFC0E0E0910901F0910A01EC
:100BB0008281C81740F460E0812F9C2F9F0D0E9416
:100BC000B604CF5FF1CF1F5F812F902FDF91CF91C0
:100BD0001F910F91FF90EF90DF9008951F93CF9397
:100BE000DF93182FEC018C2F811B9991992351F0E1
:100BF000892F0E946E05BC018C2F811B653014F477
:100C000077FFF1CFDF91CF911F9108950F931F933D
:100C1000CF93DF93EC019B0110920D0140930E01E5
:100C2000109211010091090110910A01011511059D
:100C300009F449C0F80181816091070170910801B0
:100C400090E00E94B007BC0180910B0190910C01D3
:100C50000E94C107CB016AE070E00E94B007909348
:100C6000100180930F01309306012093050140E2AB
:100C700050E0BE0182E191E00E94160880910101DE
:100C8000909102010197F9F4FE0101900020E9F72B
:100C9000CF010197F8019181692F70E06F5F7F4F5D
:100CA0008C1B0E94A7078150209103013091040101
:100CB0002130310511F095E001C097E0981718F444
:100CC0008EEF80931101DF91CF911F910F910895C5
:100CD00020910301309104012130310511F070E0C1
:100CE00001C076E04FEF60E00E940606089590E0B4
:100CF00090930801809307010895909302018093D7
:100D00000101089590930401809303010895909345
:100D10000A0180930901089580917B0190917C01E3
:100D2000019690937C0180937B0120910F0130917B
:100D300010018217930708F469C010927C01109289
:100D40007B01E0910D01F0E0EF5FFE4F81898111A1
:100D50000AC080910E01823008F458C081508093FF
:100D60000E0110920D0180910D0190E0FC01EF5FEA
:100D7000FE4F2189222309F449C04091010150917D
:100D80000201209111014115510521F04130510519
:100D900099F024C0211122C06091050170910601D3
:100DA0008E5E9E4F0E94EE0590E0019790910D019E
:100DB000890F80930D0112C06091050170910601A9
:100DC00040910301509104014130510511F4720F1B
:100DD00001C0621B8E5E9E4F0E94EE058091110144
:100DE0008F5F80931101082E000C990BE09109018F
:100DF000F0910A01218130E0281739073CF4109264
:100E0000110180910D018F5F80930D010C940302FD
:100E1000CF93DF93C1E0D1E09B878A870E941F02B6
:100E200084E190E09F838E83DF91CF910C946705DE
:100E3000CF93DF93DC01562FFB0160E070E0C1E04F
:100E4000D0E08E2F851B8417B8F49191BE01092E36
:100E500002C0660F771F0A94E2F76F5F7F4F7695A7
:100E600067956A0F7B1F02C0769567959A95E2F7A2
:100E70006F3F710509F028F7F9016083DF91CF9189
:100E80000895CF93DF93CDB7DEB72C970FB6F894C4
:100E9000DEBF0FBECDBF0E94A60184EF91E00E948D
:100EA000080784EF91E00E9482040E9433040E94AC
:100EB000CD008CE0E2E3F1E0DE01119601900D92AD
:100EC0008A95E1F702E010E0C12CD12C83E0982E46
:100ED000812CE12CF12C0E94B603892D982D0E94C3
:100EE0005900982E892E0E948C060E94670571E099
:100EF000790D41E064E084E09FEF990D0E94BD040C
:100F000061E08C2D902F0E94B6040E94970486E920
:100F1000E816F104C4F0C982DA820D831E83A92C7D
:100F2000B82CEB80FC802F81388549855A856B85EC
:100F30007C85CE0101960E94F700C980DA800D8180
:100F40001E81E12CF12C8FEFE81AF80AC4CF00249F
:100F500080FD060E660F11F08695D1F7802D08955D
:100F60000024552704C0080E591F880F991F0097A9
:100F700029F076956795B8F37105B9F7802D952F0F
:100F80000895AA1BBB1B51E107C0AA1FBB1FA617D0
:100F9000B70710F0A61BB70B881F991F5A95A9F722
:100FA00080959095BC01CD010895052E97FB1EF408
:100FB00000940E94EC0757FD07D00E94F40707FC3D
:100FC00003D04EF40C94EC07509540953095219544
:100FD0003F4F4F4F5F4F0895909580957095619565
:100FE0007F4F8F4F9F4F0895A1E21A2EAA1BBB1B64
:100FF000FD010DC0AA1FBB1FEE1FFF1FA217B307E5
:10100000E407F50720F0A21BB30BE40BF50B661FFA
:10101000771F881F991F1A9469F7609570958095BE
:1010200090959B01AC01BD01CF010895FB01DC014E
:101030004150504048F001900D920020C9F701C086
:0E1040001D9241505040E0F70895F894FFCF04
:10104E00010000000000001400000000000000007D
:10105E000000000000000000000000000000000082
:10106E000000000000000000000000000000000072
:10107E00000000000100020001000000000000035B
:10108E0006080A034000800310038003200040007E
:10109E00200010000800040002000103800340033A
:0610AE0020008003100089
:00000001FF
