:100000000C943A000C9457000C9457000C94570031
:100010000C9457000C9457000C9457000C94570004
:100020000C9457000C9457000C9457000C945700F4
:100030000C9457000C9457000C9457000C945700E4
:100040000C9457000C9457000C9457000C945700D4
:100050000C9457000C9457000C9457000C945700C4
:100060000C9457000C9457000C9457000C945700B4
:100070000C94570011241FBECFEFD4E0DEBFCDBFDC
:1000800011E0A0E0B1E0ECEDF2E002C005900D92CD
:10009000A831B107D9F721E0A8E1B1E001C01D9274
:1000A000AA31B207E1F70E9491000C946C010C9404
:1000B00000009C01FC01FF2784A1832B84A395A150
:1000C000892F832B85A381E00895E1E6F0E080E8A5
:1000D00080831082A89584B7877F84BFE0E6F0E034
:1000E000808188618083108208951092800025E0CD
:1000F000209381001092820090931901809318013F
:1001000008958091180190911901209184003091F7
:10011000850028173907C8F31092850010928400D3
:1001200008950E94650083E090E40E94590080E0F9
:1001300090E80E94590083E090E10E94590083E01A
:1001400090E80E94590083E090E20E94590080E00C
:1001500090E40E94590080E090E20E94590080E003
:1001600090E10E94590080E098E00E94590080E0F0
:1001700094E00E94590080E092E00E94590080E0E3
:1001800091E00E94590082E390E00E947500812C6A
:10019000912CAA24A394B12CC2E0D0E0CC24C39427
:1001A000D12C00E010E0612C712CE12CF12C0E948C
:1001B0008100E0E0F1E081919191DC01BB2795960F
:1001C0008C919597892B95968C9381E0EA30F8076E
:1001D00091F7EAE0F1E081919191DC01BB279596DE
:1001E0008C919597892B95968C9381E0E831F8074F
:1001F00091F7F801EE0FFF1FE050FF4F80819181D2
:10020000FC01FF2785A19095892385A3FE01EE0FB0
:10021000FF1FE65FFE4F80819181FC01FF2785A1D2
:100220009095892385A384E1E816F1040CF450C06D
:1002300081E0C816D10471F4053011051CF40F5F7C
:100240001F4F18C0892899F488248394912C612C1D
:10025000712C10C08FEFC816D80661F41016110665
:100260001CF0CC24C394D12C0C0D1D1D03C088247C
:100270008394912C81E0A816B10451F4C630D105C5
:1002800014F4219611C02197AA24AA94BA2C0CC068
:100290008FEFA816B80641F41C161D061CF0AA2400
:1002A000A394B12CCA0DDB1D81E08816910471F472
:1002B0008FEF681A780A89E0681671043CF0812C87
:1002C000912CCC24CA94DC2C04E010E0E12CF12C1D
:0C02D0008FEFE81AF80A6BCFF894FFCF0C
:1002DC000340008003100380032000400020001026
:0802EC000008000400020001FB
:00000001FF
