:100000000C943A000C9457000C9457000C94570031
:100010000C9457000C9457000C9457000C94570004
:100020000C9457000C9457000C9457000C945700F4
:100030000C9457000C9457000C9457000C945700E4
:100040000C9457000C9457000C9457000C945700D4
:100050000C9457000C9457000C9457000C945700C4
:100060000C9457000C9457000C9457000C945700B4
:100070000C94570011241FBECFEFD4E0DEBFCDBFDC
:1000800011E0A0E0B1E0E6E0FDE002C005900D92D5
:10009000A036B107D9F721E0A0E6B1E001C01D927A
:1000A000A737B207E1F70E94A2050C9481060C94D1
:1000B0000000CF93DF93EC0181E00E942E028823A1
:1000C00019F0CE01019609C080E00E942E0288231B
:1000D00019F0CE01019701C0CE01DF91CF910895B3
:1000E000CF92DF92EF92FF920F931F93CF93DF9304
:1000F000CDB7DEB72C970FB6F894DEBF0FBECDBFDD
:10010000FC01C982DA82EB82FC820D831E832F837D
:10011000388749875A876B877C8749815A81AB81A9
:10012000BC812D813E816F81788589859A85EB849C
:10013000FC84A130B10559F4453051051CF44F5FE2
:100140005F4F13C0892B79F4E12CF12C0CC0AF3F29
:100150001FEFB10751F41416150614F0A1E0B0E03A
:100160004A0F5B1F02C081E090E06130710559F4D5
:10017000263031051CF42F5F3F4F10C0215031094C
:100180006FEF7FEF0BC06F3F1FEF710739F412164F
:10019000130614F061E070E0260F371F81309105DF
:1001A00069F41FEFE11AF10A19E0E116F10434F0E5
:1001B00080E090E0AFEFBFEF44E050E05183408338
:1001C000B383A28335832483778366839187808773
:1001D000F386E286CF012C960FB6F894DEBF0FBEF1
:1001E000CDBFDF91CF911F910F91FF90EF90DF90E6
:1001F000CF900895E1E6F0E080E880831082A89532
:1002000084B7877F84BFE0E6F0E0808188618083E7
:10021000108208951092800084E0809381001092F3
:10022000850010928400089580918400909185004B
:100230000895AC0180918400909185009C01241B5D
:10024000350B283E3340B0F708952091840030915B
:100250008500820F931F0C941901853098F4673044
:1002600088F421E030E001C0220F6A95EAF7E82F18
:10027000F0E0EF59FE4F922F909580818923411134
:10028000822B80830895853080F4673070F4E82FE6
:10029000F0E0EF59FE4F81E090E001C0880F6A95D1
:1002A000EAF79081982381E009F480E00895609155
:1002B0006001E62FF0E0EF59FE4F80810E94A5011A
:1002C000809160018F5F853018F4809360010895FC
:1002D000109260010895E1E6F1E01082118212822D
:1002E0001382148208950E9483010C946B019C0177
:1002F000FC01FF2784A1832B84A395A1892F832B45
:1003000085A381E00895CF93DF93C7E4D1E089917D
:1003100099910E94770181E0C535D807C1F783E044
:1003200090E40E94770180E090E80E94770183E0EA
:1003300090E10E94770183E090E80E94770183E0DA
:1003400090E2DF91CF910C947701E0916601F0E0AB
:10035000EE0FFF1FE35CFE4F20813181F901FF2783
:1003600095A1932B95A3E7E4F1E097E020813181FB
:10037000D901BB2795962C91959780FF03C03095A6
:10038000232301C0232B95962C938695915032966A
:100390009111ECCFE62FF0E0EE0FFF1FE35CFE4F74
:1003A00080819181FC01FF2785A19095892385A3F8
:1003B0006093660108956230710511F168F461304F
:1003C000710551F5FC01FF2724A1892F8095922FFB
:1003D000982394A395A112C06330710541F0643055
:1003E0007105D1F4FC01FF2784A1892B0FC0FC010A
:1003F000FF2784A1892B84A385A19095892309C017
:10040000FC01FF2724A1892F8095822384A385A145
:10041000892B85A381E0089580E00895E82FF0E01E
:10042000EE0FFF1FE959FE4F8081882321F0918153
:1004300081E0892702C080E090E081700895E82F74
:10044000F0E0EE0FFF1FE959FE4F8081811102C0DD
:10045000818102C080E090E081700895E82FF0E093
:10046000EE0FFF1FE959FE4F80810895E82FF0E05D
:10047000EE0FFF1FE959FE4F908181E08927089513
:100480006F927F928F929F92AF92BF92CF92DF92A4
:10049000EF92FF920F931F93CF93DF9300D0CDB7CE
:1004A000DEB727E6622E21E0722E35E5C32E31E05D
:1004B000D32E812C46E0942EF30180818183F601B6
:1004C000019111916F015801BB24F50184A1E12E26
:1004D000FF2425A130E02E213F2141E0232B09F408
:1004E00040E090E08E219F21892B29F0411108C026
:1004F00023E030E00AC0411106C021E030E005C031
:1005000024E030E002C022E030E064E070E0C801A6
:1005100029833A830E94DB0162E070E0C8010E94F7
:10052000DB01892D8A95F1F7F50183A190E0E8229E
:10053000F92281E029813A81EF2809F080E0F30176
:100540008083B901C8010E94DB018394F2E06F0E41
:10055000711C85E08812B0CF0F900F90DF91CF9182
:100560001F910F91FF90EF90DF90CF90BF90AF90D1
:100570009F908F907F906F9008950895009789F0D5
:10058000FC012381621B67FD09C0062E000C770B5E
:10059000248130E081E0621773070CF080E0817005
:1005A000089580E00895CF93DF93FC01A62F822F5A
:1005B000309771F16181461758F59281291740F5FE
:1005C0009381A91BA7FD24C00A2E000CBB0BC4817C
:1005D000D0E0AC17BD07E4F40E940306480F658124
:1005E00070E0CD010E940C060696242F26952695D4
:1005F0002695E80FF91FE20FF11D9081892F90E0F9
:10060000477002C0959587954A95E2F7817001C0C1
:1006100080E0DF91CF910895CF93DF93EC010E94AA
:100620000A019E0140E050E062E17AE780E090E05C
:100630000E9431063093740120937301DF91CF91B2
:10064000089580917101909172010E941901209189
:100650007101309172018091730190917401820F48
:10066000931F9093720180937101089541E061118D
:1006700001C040E0692F0C942D01692F0C944301B7
:1006800041E0611101C040E0692F0C942D014F92AF
:100690005F926F927F928F929F92AF92BF92CF9212
:1006A000DF92EF92FF920F931F93CF93DF931F92EE
:1006B000CDB7DEB7862E942E5C01E62EF72E262FC0
:1006C000660F330B281B310987FD3395072F072E43
:1006D000000C110B091B110997FD139537FF03C07F
:1006E00077247A9402C07724739417FF03C066249A
:1006F0006A9402C066246394290137FF03C05194B1
:100700004194510817FF03C0119501951109401636
:100710005106A4F06201D594C794F92EA81421F1D2
:10072000692D8A2D9F2D0E944003C01AD10AD7FE41
:1007300003C0C40CD51CF60CA70CF0CF6801D594EF
:10074000C794E82EB71681F0692D8E2D9B2D7983E5
:100750000E944003C418D5087981D7FE03C0C00E9B
:10076000D11EE70CB60CEECF692DC7010F90DF91BB
:10077000CF911F910F91FF90EF90DF90CF90BF909E
:10078000AF909F908F907F906F905F904F900C9460
:100790004003FF920F931F93CF93DF93D82FF92E2F
:1007A000162FC72F042F792F0E944703402F6D2F3C
:1007B0007C2F8D2F9F2D0E944703402F612F7C2F70
:1007C000812F9F2D0E944703402F612F7C2F8D2F5B
:1007D0009C2F0E944703DF91CF911F910F91FF90B3
:1007E00008950E946B01E0E0F1E0118A14860895FB
:1007F000DF92EF92FF920F931F93CF93DF93D82E48
:100800007B01162F0F2D8091020190910301C0E012
:100810000197A1F50F2D0C1BE0910801F091090142
:100820008181C817C0F4D0E080910801909109013E
:10083000FC012281D21768F42D2F4C2F6D2D0E94C0
:10084000D302682F8D2F8E0D902F0E944003DF5F03
:10085000EBCFCF5FDFCFC0E0E0910801F09109015D
:100860008281C81740F460E08C2F8E0D902F0E947B
:100870004003CF5FF1CF015031C0CF5F1C2F1E0D61
:10088000E0910801F09109018181C817B0F4D0E02E
:100890008091080190910901FC012281D21768F72B
:1008A0002D2F4C2F6D2D0E94D302682F812F9D2F4D
:1008B0009F0D0E944003DF5FEBCFC0E0E091080195
:1008C000F09109018281C81740F460E0812F9C2FCC
:1008D0009F0D0E944003CF5FF1CF1F5F812F902FAC
:1008E000DF91CF911F910F91FF90EF90DF900895CE
:1008F0001F93CF93DF93182FEC018C2F811B9991BD
:10090000992351F0892F0E94F803BC018C2F811B81
:10091000653014F477FFF1CFDF91CF911F910895E7
:100920000F931F93CF93DF93EC019B0110920C0167
:1009300040930D01109210010091080110910901DE
:100940000115110509F449C0F80181816091060182
:100950007091070190E00E940C06BC0180910A0191
:1009600090910B010E941D06CB016AE070E00E948D
:100970000C0690930F0180930E0130930501209394
:10098000040140E250E0BE0181E191E00E94720664
:1009900080910001909101010197F9F4FE0101900D
:1009A0000020E9F7CF010197F8019181692F70E0EC
:1009B0006F5F7F4F8C1B0E940306815020910201C4
:1009C000309103012130310511F095E001C097E02D
:1009D000981718F48EEF80931001DF91CF911F913B
:1009E0000F910895209102013091030121303105CA
:1009F00011F070E001C076E04FEF60E00E949004DB
:100A0000089590E0909307018093060108959093D4
:100A100001018093000108959093030180930201E6
:100A200008959093090180930801089580917501BC
:100A300090917601019690937601809375012091B3
:100A40000E0130910F018217930708F469C01092CC
:100A5000760110927501E0910C01F0E0E050FF4F3B
:100A6000818981110AC080910D01823008F458C03B
:100A7000815080930D0110920C0180910C0190E047
:100A8000FC01E050FF4F2189222309F449C0409125
:100A9000000150910101209110014115510521F0F3
:100AA0004130510599F024C0211122C06091040108
:100AB000709105018F5E9E4F0E94780490E001972F
:100AC00090910C01890F80930C0112C06091040178
:100AD000709105014091020150910301413051058F
:100AE00011F4720F01C0621B8F5E9E4F0E9478044A
:100AF000809110018F5F80931001082E000C990BDC
:100B0000E0910801F0910901218130E028173907AF
:100B10003CF41092100180910C018F5F80930C01C6
:100B20000C945701CF93DF93C0E0D1E09B878A8775
:100B30000E94730184E190E09F838E83DF91CF91C7
:100B40000C94F103CF93DF93CDB7DEB72C970FB69C
:100B5000F894DEBF0FBECDBF0E94FA0084EF91E093
:100B60000E94920584EF91E00E940C030E94BD0256
:100B70008CE0E1E3F1E0DE01119601900D928A959F
:100B8000E1F702E010E0C12CD12C83E0B82EA12CBB
:100B9000E12CF12C0E9440028B2D9A2D0E945900CD
:100BA000B82EA92E0E9416050E94F10372E07B0D5B
:100BB00041E060E080E09B2D0E94470361E08C2DC6
:100BC000902F0E9440030E94210386E9E816F10459
:100BD000B4F0C982DA820D831E83EB80FC802F8102
:100BE000388549855A856B857C85CE0101960E94A2
:100BF0007000C980DA800D811E81E12CF12C8FEF0D
:100C0000E81AF80AC7CF002480FD060E660F11F01F
:100C10008695D1F7802D08950024552704C0080E2D
:100C2000591F880F991F009729F076956795B8F39B
:100C30007105B9F7802D952F0895AA1BBB1B51E1B3
:100C400007C0AA1FBB1FA617B70710F0A61BB70B3C
:100C5000881F991F5A95A9F780959095BC01CD01E1
:100C60000895052E97FB1EF400940E94480657FD38
:100C700007D00E94500607FC03D04EF40C9448069F
:100C800050954095309521953F4F4F4F5F4F0895B8
:100C900090958095709561957F4F8F4F9F4F0895E8
:100CA000A1E21A2EAA1BBB1BFD010DC0AA1FBB1F70
:100CB000EE1FFF1FA217B307E407F50720F0A21BE2
:100CC000B30BE40BF50B661F771F881F991F1A944F
:100CD00069F760957095809590959B01AC01BD0179
:100CE000CF010895FB01DC014150504048F00190D4
:100CF0000D920020C9F701C01D9241505040E0F70D
:060D00000895F894FFCFF6
:100D060000000000000014000000000000000000C9
:100D160000000000000000000000000000000000CD
:100D260000000000000000000000000000000000BD
:100D36000000000100020001000000000003400066
:100D460080031003800320004000200010000800EC
:100D5600040002000103800340032000800310000A
:00000001FF
