:100000000C943A000C9457000C9457000C94570031
:100010000C9457000C9457000C9457000C94570004
:100020000C9457000C9457000C9457000C945700F4
:100030000C9457000C9457000C9457000C945700E4
:100040000C9457000C9457000C9457000C945700D4
:100050000C9457000C9457000C9457000C945700C4
:100060000C9457000C9457000C9457000C945700B4
:100070000C94570011241FBECFEFD4E0DEBFCDBFDC
:1000800011E0A0E0B1E0EAECFDE002C005900D92C5
:10009000A036B107D9F721E0A0E6B1E001C01D927A
:1000A000A737B207E1F70E9401060C94E3060C940F
:1000B0000000CF93DF93EC0182E00E946D02882361
:1000C00019F0CE01019609C080E00E946D028823DC
:1000D00019F0CE01019701C0CE01DF91CF910895B3
:1000E00080E197E20E94F1050E941C0341E064E078
:1000F00074E084E092E00E94A603C0E0D0E00E9499
:1001000075050E949F0282E00E946D02882389F09B
:10011000C230D10574F40E9450047C2F7B5F41E013
:1001200064E084E09C2F9D5F0E94A6030E947505F9
:10013000219680E00E946D02882309F3CF3F8FEF64
:10014000D807ECF20E9450047C2F7D5F41E064E010
:1001500084E09C2F9F5F0E94A6030E947505219753
:10016000CECF8F929F92AF92BF92CF92DF92EF92BB
:10017000FF920F931F93CF93DF93CDB7DEB72C97EA
:100180000FB6F894DEBF0FBECDBFFC01C982DA8284
:10019000EB82FC820D831E832F83388749875A8721
:1001A0006B877C8769817A814B815C812D813E815F
:1001B0008F819885A985BA858B849C8441305105AF
:1001C00059F4653071051CF46F5F7F4F29C0AB2B6C
:1001D00029F5812C912C22C04F3F1FEF510701F5CB
:1001E00016161706B4F461307105A9F4A216B30609
:1001F00081F06901C80ED91E75011FEFE11AF10ADD
:10020000EC14FD0431F011E0A11AB108AC14BD04E6
:1002100011F441E050E0640F751F02C0A1E0B0E0AE
:100220008130910559F4263031051CF42F5F3F4F82
:1002300010C0215031098FEF9FEF0BC08F3F1FEF90
:10024000910739F41216130614F081E090E0280F9C
:10025000391FA130B10569F41FEF811A910A19E025
:100260008116910434F0A0E0B0E04FEF5FEF64E05E
:1002700070E0718360835383428335832483978343
:100280008683B187A08793868286CF012C960FB68E
:10029000F894DEBF0FBECDBFDF91CF911F910F91BC
:1002A000FF90EF90DF90CF90BF90AF909F908F9096
:1002B0000895E1E6F0E080E880831082A89584B795
:1002C000877F84BFE0E6F0E08081886180831082D0
:1002D00008951092800084E0809381001092850040
:1002E0001092840008958091840090918500089573
:1002F000AC0180918400909185009C01241B350BFA
:10030000283E3340B0F70895209184003091850055
:10031000820F931F0C947801853098F4673088F42D
:1003200021E030E001C0220F6A95EAF7E82FF0E003
:10033000EF59FE4F922F9095808189234111822B96
:1003400080830895853080F4673070F4E82FF0E002
:10035000EF59FE4F81E090E001C0880F6A95EAF7FF
:100360009081982381E009F480E008956091600114
:10037000E62FF0E0EF59FE4F80810E940402809149
:1003800060018F5F853018F48093600108951092AA
:1003900060010895E1E6F1E0108211821282138279
:1003A000148208950E94E2010C94CA019C01FC0190
:1003B000FF2784A1832B84A395A1892F832B85A359
:1003C00081E00895CF93DF93C7E4D1E089919991BB
:1003D0000E94D60181E0C535D807C1F783E090E4DB
:1003E0000E94D60180E090E80E94D60183E090E16F
:1003F0000E94D60183E090E80E94D60183E090E25B
:10040000DF91CF910C94D601E0916601F0E0EE0F00
:10041000FF1FE35CFE4F20813181F901FF2795A189
:10042000932B95A3E7E4F1E097E020813181D90196
:10043000BB2795962C91959780FF03C03095232379
:1004400001C0232B95962C9386959150329691114D
:10045000ECCFE62FF0E0EE0FFF1FE35CFE4F808154
:100460009181FC01FF2785A19095892385A3609345
:10047000660108956230710511F168F4613071050B
:1004800051F5FC01FF2724A1892F8095922F9823F5
:1004900094A395A112C06330710541F064307105D9
:1004A000D1F4FC01FF2784A1892B0FC0FC01FF2799
:1004B00084A1892B84A385A19095892309C0FC017F
:1004C000FF2724A1892F8095822384A385A1892BCE
:1004D00085A381E0089580E00895E82FF0E0EE0F15
:1004E000FF1FE959FE4F8081882321F0918181E02F
:1004F000892702C080E090E081700895E82FF0E045
:10050000EE0FFF1FE959FE4F8081811102C08181EA
:1005100002C080E090E081700895E82FF0E0EE0FD7
:10052000FF1FE959FE4F80810895E82FF0E0EE0F9C
:10053000FF1FE959FE4F908181E0892708956F924E
:100540007F928F929F92AF92BF92CF92DF92EF9263
:10055000FF920F931F93CF93DF9300D0CDB7DEB7F9
:1005600027E6622E21E0722E35E5C32E31E0D32E30
:10057000812C46E0942EF30180818183F601019164
:1005800011916F015801BB24F50184A1E12EFF24D4
:1005900025A130E02E213F2141E0232B09F440E04A
:1005A00090E08E219F21892B29F0411108C023E082
:1005B00030E00AC0411106C021E030E005C024E06F
:1005C00030E002C022E030E064E070E0C80129833E
:1005D0003A830E943A0262E070E0C8010E943A0247
:1005E000892D8A95F1F7F50183A190E0E822F9229F
:1005F00081E029813A81EF2809F080E0F3018083CE
:10060000B901C8010E943A028394F2E06F0E711C96
:1006100085E08812B0CF0F900F90DF91CF911F919E
:100620000F91FF90EF90DF90CF90BF90AF909F9091
:100630008F907F906F9008950895009789F0FC0146
:100640002381621B67FD09C0062E000C770B2481F5
:1006500030E081E0621773070CF080E0817008954C
:1006600080E00895CF93DF93FC01A62F822F30976F
:1006700071F16181461758F59281291740F59381F0
:10068000A91BA7FD24C00A2E000CBB0BC481D0E01F
:10069000AC17BD07E4F40E946506480F658170E061
:1006A000CD010E946E060696242F26952695269546
:1006B000E80FF91FE20FF11D9081892F90E047703C
:1006C00002C0959587954A95E2F7817001C080E058
:1006D000DF91CF910895CF93DF93EC010E946901E0
:1006E0009E0140E050E062E17AE780E090E00E9405
:1006F00093063093740120937301DF91CF91089595
:1007000080917101909172010E9478012091710194
:10071000309172018091730190917401820F931F47
:100720009093720180937101089541E0611101C0BD
:1007300040E0692F0C948C01692F0C94A20141E0D8
:10074000611101C040E0692F0C948C014F925F92BF
:100750006F927F928F929F92AF92BF92CF92DF92D1
:10076000EF92FF920F931F93CF93DF931F92CDB71A
:10077000DEB7862E942E5C01E62EF72E262F660F0E
:10078000330B281B310987FD3395072F072E000CEB
:10079000110B091B110997FD139537FF03C077242F
:1007A0007A9402C07724739417FF03C066246A9476
:1007B00002C066246394290137FF03C05194419419
:1007C000510817FF03C011950195110940165106F4
:1007D000A4F06201D594C794F92EA81421F1692DD3
:1007E0008A2D9F2D0E949F03C01AD10AD7FE03C0F5
:1007F000C40CD51CF60CA70CF0CF6801D594C79497
:10080000E82EB71681F0692D8E2D9B2D79830E94DD
:100810009F03C418D5087981D7FE03C0C00ED11E2E
:10082000E70CB60CEECF692DC7010F90DF91CF9189
:100830001F910F91FF90EF90DF90CF90BF90AF90FE
:100840009F908F907F906F905F904F900C949F033C
:10085000FF920F931F93CF93DF93D82FF92E162F6C
:10086000C72F042F792F0E94A603402F6D2F7C2FB6
:100870008D2F9F2D0E94A603402F612F7C2F812F4B
:100880009F2D0E94A603402F612F7C2F8D2F9C2F20
:100890000E94A603DF91CF911F910F91FF900895C1
:1008A0000E94CA01E0E0F1E0118A14860895DF9207
:1008B000EF92FF920F931F93CF93DF93D82E7B017C
:1008C000162F0F2D8091020190910301C0E0019736
:1008D000A1F50F2D0C1BE0910801F0910901818118
:1008E000C817C0F4D0E08091080190910901FC0183
:1008F0002281D21768F42D2F4C2F6D2D0E943203C8
:10090000682F8D2F8E0D902F0E949F03DF5FEBCFFE
:10091000CF5FDFCFC0E0E0910801F0910901828153
:10092000C81740F460E08C2F8E0D902F0E949F031B
:10093000CF5FF1CF015031C0CF5F1C2F1E0DE09172
:100940000801F09109018181C817B0F4D0E08091CD
:10095000080190910901FC012281D21768F72D2F1F
:100960004C2F6D2D0E943203682F812F9D2F9F0DDC
:100970000E949F03DF5FEBCFC0E0E0910801F091A0
:1009800009018281C81740F460E0812F9C2F9F0DE0
:100990000E949F03CF5FF1CF1F5F812F902FDF91C8
:1009A000CF911F910F91FF90EF90DF9008951F93CB
:1009B000CF93DF93182FEC018C2F811B99919923F2
:1009C00051F0892F0E945704BC018C2F811B653088
:1009D00014F477FFF1CFDF91CF911F9108950F931A
:1009E0001F93CF93DF93EC019B0110920C01409376
:1009F0000D011092100100910801109109010115DB
:100A0000110509F449C0F8018181609106017091D6
:100A1000070190E00E946E06BC0180910A0190914E
:100A20000B010E947F06CB016AE070E00E946E0617
:100A300090930F0180930E013093050120930401E0
:100A400040E250E0BE0181E191E00E94D406809135
:100A50000001909101010197F9F4FE01019000203D
:100A6000E9F7CF010197F8019181692F70E06F5F7D
:100A70007F4F8C1B0E9465068150209102013091AE
:100A800003012130310511F095E001C097E098177E
:100A900018F48EEF80931001DF91CF911F910F9189
:100AA000089520910201309103012130310511F0A8
:100AB00070E001C076E04FEF60E00E94EF0408951F
:100AC00090E09093070180930601089590930101AF
:100AD000809300010895909303018093020108958B
:100AE0009093090180930801089580917501909178
:100AF00076010196909376018093750120910E0105
:100B000030910F018217930708F469C010927601A3
:100B100010927501E0910C01F0E0E050FF4F8189E7
:100B200081110AC080910D01823008F458C08150B3
:100B300080930D0110920C0180910C0190E0FC015A
:100B4000E050FF4F2189222309F449C04091000160
:100B500050910101209110014115510521F04130C2
:100B6000510599F024C0211122C0609104017091B7
:100B700005018F5E9E4F0E94D70490E001979091EF
:100B80000C01890F80930C0112C0609104017091D7
:100B9000050140910201509103014130510511F4CA
:100BA000720F01C0621B8F5E9E4F0E94D70480911E
:100BB00010018F5F80931001082E000C990BE091BB
:100BC0000801F0910901218130E0281739073CF430
:100BD0001092100180910C018F5F80930C010C9496
:100BE000B601CF93DF93C0E0D1E09B878A870E9454
:100BF000D20184E190E09F838E83DF91CF910C94AA
:100C00005004CF93DF93CDB7DEB72C970FB6F8948F
:100C1000DEBF0FBECDBF0E94590184EF91E00E945C
:100C2000F10584EF91E00E946B030E941C038CE0AD
:100C3000E1E3F1E0DE01119601900D928A95E1F772
:100C400002E010E0C12CD12C83E0982E812CE12C05
:100C5000F12C0E949F02892D982D0E945900982EF8
:100C6000892E0E9475050E94500471E0790D41E0C3
:100C700060E080E09FEF990D0E94A60361E08C2D5B
:100C8000902F0E949F030E94800386E9E816F104DA
:100C9000C4F0C982DA820D831E83A92CB82CEB80A4
:100CA000FC802F81388549855A856B857C85CE01EE
:100CB00001960E94B100C980DA800D811E81E12C6D
:100CC000F12C8FEFE81AF80AC4CF002480FD060E3D
:100CD000660F11F08695D1F7802D089500245527D1
:100CE00004C0080E591F880F991F009729F07695A8
:100CF0006795B8F37105B9F7802D952F0895AA1B54
:100D0000BB1B51E107C0AA1FBB1FA617B70710F0F6
:100D1000A61BB70B881F991F5A95A9F78095909528
:100D2000BC01CD010895052E97FB1EF400940E948E
:100D3000AA0657FD07D00E94B20607FC03D04EF466
:100D40000C94AA0650954095309521953F4F4F4FF2
:100D50005F4F089590958095709561957F4F8F4F67
:100D60009F4F0895A1E21A2EAA1BBB1BFD010DC0C7
:100D7000AA1FBB1FEE1FFF1FA217B307E407F5074B
:100D800020F0A21BB30BE40BF50B661F771F881F27
:100D9000991F1A9469F760957095809590959B01BD
:100DA000AC01BD01CF010895FB01DC014150504071
:100DB00048F001900D920020C9F701C01D924150EA
:0A0DC0005040E0F70895F894FFCFCB
:100DCA000000000000001400000000000000000005
:100DDA000000000000000000000000000000000009
:100DEA0000000000000000000000000000000000F9
:100DFA0000000001000200010000000000034000A2
:100E0A008003100380032000400020001000080027
:100E1A000400020001038003400320008003100045
:00000001FF
