:100000000C943A000C9457000C9457000C94570031
:100010000C9457000C9457000C9457000C94570004
:100020000C9457000C9457000C9457000C945700F4
:100030000C9457000C9457000C9457000C945700E4
:100040000C9457000C9457000C9457000C945700D4
:100050000C9457000C9457000C9457000C945700C4
:100060000C9457000C9457000C9457000C945700B4
:100070000C94570011241FBECFEFD4E0DEBFCDBFDC
:1000800011E0A0E0B1E0E0E8FCE002C005900D92D4
:10009000A435B107D9F721E0A4E5B1E001C01D9274
:1000A000A537B207E1F70E947F050C943E060C9439
:1000B00000000E94D70084EF91E00E946F0584EF5A
:1000C00091E00E94E902812C912CAA24A394B12CE6
:1000D000C2E0D0E0CC24C394D12C00E010E0612C2D
:1000E000712CE12CF12C0E94F3040E94CE0361E0FC
:1000F000802F9C2F0E941D030E94FE028CE3E816B5
:10010000F1040CF450C081E0C816D10471F405303C
:1001100011051CF40F5F1F4F18C0892899F488241B
:100120008394912C612C712C10C08FEFC816D806C7
:1001300061F4101611061CF0CC24C394D12C0C0DC4
:100140001D1D03C088248394912C81E0A816B1045E
:1001500051F4C630D10514F4219611C02197AA2478
:10016000AA94BA2C0CC08FEFA816B80641F41C163E
:100170001D061CF0AA24A394B12CCA0DDB1D81E03E
:100180008816910471F48FEF681A780A89E068166E
:1001900071043CF0812C912CCC24CA94DC2C04E01A
:1001A00010E0E12CF12C8FEFE81AF80A9CCFE1E681
:1001B000F0E080E880831082A89584B7877F84BFB1
:1001C000E0E6F0E0808188618083108208951092DB
:1001D000800084E08093810010928500109284005A
:1001E000089580918400909185000895AC018091DC
:1001F0008400909185009C01241B350B283E3340E0
:10020000B0F708952091840030918500820F931FEC
:100210000C94F600853098F4673088F421E030E0E3
:1002200001C0220F6A95EAF7E82FF0E0EB5AFE4F83
:10023000922F9095808189234111822B808308958C
:10024000853080F4673070F4E82FF0E0EB5AFE4F11
:1002500081E090E001C0880F6A95EAF790819823C9
:1002600081E009F480E0089560915401E62FF0E008
:10027000EB5AFE4F80810E948201809154018F5F72
:10028000853018F480935401089510925401089514
:10029000E5E5F1E010821182128213821482089542
:1002A0000E9460010C9448019C01FC01FF2784A17D
:1002B000832B84A395A1892F832B85A381E00895A7
:1002C000CF93DF93CBE3D1E0899199910E945401C0
:1002D00081E0C934D807C1F783E090E40E9454015B
:1002E00080E090E80E94540183E090E10E94540174
:1002F00083E090E80E94540183E090E2DF91CF9187
:100300000C945401E0915A01F0E0EE0FFF1FEF5CF6
:10031000FE4F20813181F901FF2795A1932B95A3F1
:10032000EBE3F1E097E020813181D901BB2795967D
:100330002C91959780FF03C03095232301C0232B78
:1003400095962C938695915032969111ECCFE62F8D
:10035000F0E0EE0FFF1FEF5CFE4F80819181FC010A
:10036000FF2785A19095892385A360935A0108955D
:100370006230710511F168F46130710551F5FC01CD
:10038000FF2724A1892F8095922F982394A395A1CC
:1003900012C06330710541F064307105D1F4FC0185
:1003A000FF2784A1892B0FC0FC01FF2784A1892B83
:1003B00084A385A19095892309C0FC01FF2724A16E
:1003C000892F8095822384A385A1892B85A381E031
:1003D000089580E00895E82FF0E0EE0FFF1FE55A42
:1003E000FE4F8081882321F0918181E0892702C01E
:1003F00080E090E081700895E82FF0E0EE0FFF1F9D
:10040000E55AFE4F8081811102C0818102C080E0E7
:1004100090E081700895E82FF0E0EE0FFF1FE55A9D
:10042000FE4F80810895E82FF0E0EE0FFF1FE55AA0
:10043000FE4F908181E0892708956F927F928F927D
:100440009F92AF92BF92CF92DF92EF92FF920F9363
:100450001F93CF93DF9300D0CDB7DEB72BE5622E8D
:1004600021E0722E39E4C32E31E0D32E812C46E0F8
:10047000942EF30180818183F601019111916F0126
:100480005801BB24F50184A1E12EFF2425A130E011
:100490002E213F2141E0232B09F440E090E08E2102
:1004A0009F21892B29F0411108C023E030E00AC0C8
:1004B000411106C021E030E005C024E030E002C078
:1004C00022E030E064E070E0C80129833A830E94B2
:1004D000B80162E070E0C8010E94B801892D8A95D8
:1004E000F1F7F50183A190E0E822F92281E029816A
:1004F0003A81EF2809F080E0F3018083B901C80157
:100500000E94B8018394F2E06F0E711C85E088129E
:10051000B0CF0F900F90DF91CF911F910F91FF906F
:10052000EF90DF90CF90BF90AF909F908F907F9093
:100530006F9008950895009789F0FC012381621B54
:1005400067FD09C0062E000C770B248130E081E0A6
:10055000621773070CF080E08170089580E00895C1
:10056000CF93DF93FC01A62F822F309771F1618129
:10057000461758F59281291740F59381A91BA7FDCD
:1005800024C00A2E000CBB0BC481D0E0AC17BD0701
:10059000E4F40E94C005480F658170E0CD010E941F
:1005A000C9050696242F269526952695E80FF91F4E
:1005B000E20FF11D9081892F90E0477002C0959560
:1005C00087954A95E2F7817001C080E0DF91CF9175
:1005D0000895CF93DF93EC010E94E7009E0140E075
:1005E00050E062E17AE780E090E00E94EE0530930F
:1005F000680120936701DF91CF9108958091650193
:10060000909166010E94F60020916501309166018B
:100610008091670190916801820F931F909366010A
:1006200080936501089541E0611101C040E0692FA8
:100630000C940A01692F0C94200141E0611101C062
:1006400040E0692F0C940A014F925F926F927F9263
:100650008F929F92AF92BF92CF92DF92EF92FF92D2
:100660000F931F93CF93DF931F92CDB7DEB7862EE4
:10067000942E5C01E62EF72E262F660F330B281BD7
:10068000310987FD3395072F072E000C110B091B2D
:10069000110997FD139537FF03C077247A9402C0A0
:1006A0007724739417FF03C066246A9402C06624FB
:1006B0006394290137FF03C051944194510817FFF7
:1006C00003C011950195110940165106A4F062016D
:1006D000D594C794F92EA81421F1692D8A2D9F2D48
:1006E0000E941D03C01AD10AD7FE03C0C40CD51C3A
:1006F000F60CA70CF0CF6801D594C794E82EB71676
:1007000081F0692D8E2D9B2D79830E941D03C418C5
:10071000D5087981D7FE03C0C00ED11EE70CB60CF8
:10072000EECF692DC7010F90DF91CF911F910F91EF
:10073000FF90EF90DF90CF90BF90AF909F908F9001
:100740007F906F905F904F900C941D03FF920F93DA
:100750001F93CF93DF93D82FF92E162FC72F042F77
:10076000792F0E942403402F6D2F7C2F8D2F9F2DDA
:100770000E942403402F612F7C2F812F9F2D0E94E8
:100780002403402F612F7C2F8D2F9C2F0E94240348
:10079000DF91CF911F910F91FF9008950E94480122
:1007A000E0E0F1E0118A14860895DF92EF92FF9263
:1007B0000F931F93CF93DF93D82E7B01162F0F2D0E
:1007C0008091020190910301C0E00197A1F50F2DE6
:1007D0000C1BE0910801F09109018181C817C0F458
:1007E000D0E08091080190910901FC012281D2178B
:1007F00068F42D2F4C2F6D2D0E94B002682F8D2F85
:100800008E0D902F0E941D03DF5FEBCFCF5FDFCFF8
:10081000C0E0E0910801F09109018281C81740F41D
:1008200060E08C2F8E0D902F0E941D03CF5FF1CFC3
:10083000015031C0CF5F1C2F1E0DE0910801F091D7
:1008400009018181C817B0F4D0E08091080190912E
:100850000901FC012281D21768F72D2F4C2F6D2D35
:100860000E94B002682F812F9D2F9F0D0E941D03B3
:10087000DF5FEBCFC0E0E0910801F09109018281D8
:10088000C81740F460E0812F9C2F9F0D0E941D032C
:10089000CF5FF1CF1F5F812F902FDF91CF911F91FD
:1008A0000F91FF90EF90DF9008951F93CF93DF9308
:1008B000182FEC018C2F811B9991992351F0892FCE
:1008C0000E94D503BC018C2F811B653014F477FF87
:1008D000F1CFDF91CF911F9108950F931F93CF9385
:1008E000DF93EC019B0110920C0140930D011092DB
:1008F000100100910801109109010115110509F479
:1009000049C0F8018181609106017091070190E072
:100910000E94C905BC0180910A0190910B010E94BF
:10092000DA05CB016AE070E00E94C90590930F01DF
:1009300080930E01309305012093040140E250E0C2
:10094000BE0181E191E00E942F068091000190910B
:1009500001010197F9F4FE0101900020E9F7CF01B0
:100960000197F8019181692F70E06F5F7F4F8C1BB9
:100970000E94C00581502091020130910301213075
:10098000310511F095E001C097E0981718F48EEF4B
:1009900080931001DF91CF911F910F9108952091C5
:1009A0000201309103012130310511F070E001C0E6
:1009B00076E04FEF60E00E946D04089590E0909320
:1009C000070180930601089590930101809300012F
:1009D0000895909303018093020108959093090173
:1009E0008093080108958091690190916A010196B0
:1009F00090936A018093690120910E0130910F015B
:100A00008217930708F469C010926A011092690175
:100A1000E0910C01F0E0E050FF4F818981110AC0A4
:100A200080910D01823008F458C0815080930D01EF
:100A300010920C0180910C0190E0FC01E050FF4FFE
:100A40002189222309F449C04091000150910101FC
:100A5000209110014115510521F04130510599F0C7
:100A600024C0211122C060910401709105018F5EA4
:100A70009E4F0E94550490E0019790910C01890FC0
:100A800080930C0112C060910401709105014091A6
:100A90000201509103014130510511F4720F01C060
:100AA000621B8F5E9E4F0E945504809110018F5FE4
:100AB00080931001082E000C990BE0910801F09131
:100AC0000901218130E0281739073CF41092100108
:100AD00080910C018F5F80930C010C943401CF93B3
:100AE000DF93C0E0D1E09B878A870E94500184E1B8
:100AF00090E09F838E83DF91CF910C94CE0380E1B1
:100B000097E20E946F050E949A0241E064E074E05F
:100B100084E092E00E942403C0E0D0E00E94F3044D
:100B20000E941D0282E00E94EB01882389F0C230FE
:100B3000D10574F40E94CE037C2F7B5F41E064E01A
:100B400084E09C2F9D5F0E9424030E94F304219661
:100B500080E00E94EB01882309F3CF3F8FEFD80795
:100B6000ECF20E94CE037C2F7D5F41E064E084E0E4
:100B70009C2F9F5F0E9424030E94F3042197CECFF5
:100B8000002480FD060E660F11F08695D1F7802DAA
:100B900008950024552704C0080E591F880F991F77
:100BA000009729F076956795B8F37105B9F7802D10
:100BB000952F0895AA1BBB1B51E107C0AA1FBB1F9D
:100BC000A617B70710F0A61BB70B881F991F5A95D9
:100BD000A9F780959095BC01CD010895052E97FB4E
:100BE0001EF400940E94050657FD07D00E940D06D2
:100BF00007FC03D04EF40C940506509540953095B3
:100C000021953F4F4F4F5F4F089590958095709578
:100C100061957F4F8F4F9F4F0895A1E21A2EAA1B17
:100C2000BB1BFD010DC0AA1FBB1FEE1FFF1FA2179C
:100C3000B307E407F50720F0A21BB30BE40BF50B99
:100C4000661F771F881F991F1A9469F76095709522
:100C5000809590959B01AC01BD01CF010895FB01EA
:100C6000DC014150504048F001900D920020C9F73E
:100C700001C01D9241505040E0F70895F894FFCF15
:100C80000000000000001400000000000000000050
:100C90000000000000000000000000000000000054
:100CA0000000000000000000000000000000000044
:100CB0000003400080031003800320004000200058
:100CC000100008000400020001038003400320001C
:040CD000800310008D
:00000001FF
